{
    "contractName": "UserBuy",
    "abi": [
        {
            "inputs": [
                {
                    "internalType": "address",
                    "name": "_add",
                    "type": "address"
                }
            ],
            "stateMutability": "nonpayable",
            "type": "constructor"
        },
        {
            "anonymous": false,
            "inputs": [
                {
                    "indexed": false,
                    "internalType": "uint256",
                    "name": "OrderID",
                    "type": "uint256"
                },
                {
                    "indexed": false,
                    "internalType": "uint256",
                    "name": "ClaimTime",
                    "type": "uint256"
                }
            ],
            "name": "OrderClaimed",
            "type": "event"
        },
        {
            "anonymous": false,
            "inputs": [
                {
                    "indexed": false,
                    "internalType": "uint256",
                    "name": "OrderID",
                    "type": "uint256"
                },
                {
                    "indexed": false,
                    "internalType": "uint256",
                    "name": "BuyTime",
                    "type": "uint256"
                }
            ],
            "name": "OrderPlaced",
            "type": "event"
        },
        {
            "inputs": [],
            "name": "ViewToken",
            "outputs": [
                {
                    "internalType": "uint256",
                    "name": "",
                    "type": "uint256"
                }
            ],
            "stateMutability": "view",
            "type": "function"
        },
        {
            "inputs": [
                {
                    "internalType": "uint256",
                    "name": "_amount",
                    "type": "uint256"
                }
            ],
            "name": "buyTokens",
            "outputs": [],
            "stateMutability": "payable",
            "type": "function"
        },
        {
            "inputs": [
                {
                    "internalType": "uint256",
                    "name": "_orderId",
                    "type": "uint256"
                }
            ],
            "name": "claim",
            "outputs": [],
            "stateMutability": "nonpayable",
            "type": "function"
        },
        {
            "inputs": [
                {
                    "internalType": "address",
                    "name": "_user",
                    "type": "address"
                }
            ],
            "name": "getUserData",
            "outputs": [
                {
                    "components": [
                        {
                            "internalType": "address",
                            "name": "Buyer",
                            "type": "address"
                        },
                        {
                            "internalType": "uint256",
                            "name": "Amount",
                            "type": "uint256"
                        },
                        {
                            "internalType": "bool",
                            "name": "is_Claimed",
                            "type": "bool"
                        },
                        {
                            "internalType": "uint256",
                            "name": "claimTime",
                            "type": "uint256"
                        }
                    ],
                    "internalType": "struct UserBuy.Order[]",
                    "name": "",
                    "type": "tuple[]"
                }
            ],
            "stateMutability": "view",
            "type": "function"
        },
        {
            "inputs": [
                {
                    "internalType": "uint256",
                    "name": "_orderId",
                    "type": "uint256"
                }
            ],
            "name": "isClaimable",
            "outputs": [
                {
                    "internalType": "bool",
                    "name": "",
                    "type": "bool"
                }
            ],
            "stateMutability": "view",
            "type": "function"
        },
        {
            "inputs": [
                {
                    "internalType": "uint256",
                    "name": "_orderId",
                    "type": "uint256"
                }
            ],
            "name": "isClaimed",
            "outputs": [
                {
                    "internalType": "bool",
                    "name": "",
                    "type": "bool"
                }
            ],
            "stateMutability": "view",
            "type": "function"
        },
        {
            "inputs": [
                {
                    "internalType": "address",
                    "name": "_user",
                    "type": "address"
                },
                {
                    "internalType": "uint256",
                    "name": "_orderId",
                    "type": "uint256"
                }
            ],
            "name": "isClaimer",
            "outputs": [
                {
                    "internalType": "bool",
                    "name": "",
                    "type": "bool"
                }
            ],
            "stateMutability": "view",
            "type": "function"
        },
        {
            "inputs": [
                {
                    "internalType": "uint256",
                    "name": "",
                    "type": "uint256"
                }
            ],
            "name": "orderToken",
            "outputs": [
                {
                    "internalType": "address",
                    "name": "Buyer",
                    "type": "address"
                },
                {
                    "internalType": "uint256",
                    "name": "Amount",
                    "type": "uint256"
                },
                {
                    "internalType": "bool",
                    "name": "is_Claimed",
                    "type": "bool"
                },
                {
                    "internalType": "uint256",
                    "name": "claimTime",
                    "type": "uint256"
                }
            ],
            "stateMutability": "view",
            "type": "function"
        },
        {
            "inputs": [
                {
                    "internalType": "uint256",
                    "name": "",
                    "type": "uint256"
                }
            ],
            "name": "user",
            "outputs": [
                {
                    "internalType": "address payable",
                    "name": "",
                    "type": "address"
                }
            ],
            "stateMutability": "view",
            "type": "function"
        },
        {
            "inputs": [],
            "name": "value",
            "outputs": [
                {
                    "internalType": "uint256",
                    "name": "",
                    "type": "uint256"
                }
            ],
            "stateMutability": "payable",
            "type": "function"
        },
        {
            "stateMutability": "payable",
            "type": "receive"
        }
    ],
    "bytecode": "60806040526001600455600160055534801561001a57600080fd5b50604051610a6b380380610a6b83398101604081905261003991610068565b600680546001600160a01b039092166001600160a01b0319928316811790915560008054909216179055610098565b60006020828403121561007a57600080fd5b81516001600160a01b038116811461009157600080fd5b9392505050565b6109c4806100a76000396000f3fe6080604052600436106100955760003560e01c806389610a091161005957806389610a09146101fd5780638a3eb3c41461022d5780639e34070f1461024d578063cd65bb671461026d578063ffc9896b1461028057600080fd5b80630d3f51d5146100fa5780633610724e14610180578063379607f5146101955780633fa4f245146101b5578063553275be146101c557600080fd5b366100f557670de0b6b3a76400003410156100af57600080fd5b6001805480820182556000919091527fb10e2d527612073b26eecdfd717e6a320cf44b4afac2b0732d9fcbe2b7fa0cf60180546001600160a01b03191633908117909155005b600080fd5b34801561010657600080fd5b5061014b610115366004610821565b600260208190526000918252604090912080546001820154928201546003909201546001600160a01b03909116929160ff169084565b604080516001600160a01b03909516855260208501939093529015159183019190915260608201526080015b60405180910390f35b61019361018e366004610821565b6102ad565b005b3480156101a157600080fd5b506101936101b0366004610821565b6104e1565b345b604051908152602001610177565b3480156101d157600080fd5b506101e56101e0366004610821565b6106d1565b6040516001600160a01b039091168152602001610177565b34801561020957600080fd5b5061021d610218366004610821565b6106fb565b6040519015158152602001610177565b34801561023957600080fd5b5061021d610248366004610856565b610724565b34801561025957600080fd5b5061021d610268366004610821565b610757565b34801561027957600080fd5b50476101b7565b34801561028c57600080fd5b506102a061029b366004610880565b61077c565b60405161017791906108a2565b6000546040516370a0823160e01b815230600482015282916001600160a01b0316906370a0823190602401602060405180830381865afa1580156102f5573d6000803e3d6000fd5b505050506040513d601f19601f820116820180604052508101906103199190610911565b101561036c5760405162461bcd60e51b815260206004820152601a60248201527f496e73756666696369616e7420546f6b656e2042616c616e636500000000000060448201526064015b60405180910390fd5b60408051608081018252338152602081018390526000918101919091526060810161039842603c610940565b90526005546000908152600260208181526040808420855181546001600160a01b0319166001600160a01b0390911617815585830151600182015585820151938101805460ff1916941515949094179093556060948501516003938401553380855292825280842081516080810183529384529183018690528201929092529091810161042642603c610940565b90528154600180820184556000938452602093849020835160049093020180546001600160a01b0319166001600160a01b03909316929092178255828401519082015560408083015160028301805460ff1916911515919091179055606090920151600390910155600554815190815242928101929092527fd2c5bfb6bce70df9ca34993c14f0558fa1ee01713c7cf98de5c90dd033cdb85e910160405180910390a1600580549060006104d983610953565b919050555050565b6104eb3382610724565b6105435760405162461bcd60e51b815260206004820152602360248201527f596f7520617265206e6f7420746865204275796572206f662074686973206f726044820152623232b960e91b6064820152608401610363565b61054c81610757565b6105985760405162461bcd60e51b815260206004820152601a60248201527f546f6b656e732061726520616c726561647920436c61696d65640000000000006044820152606401610363565b6105a1816106fb565b6105ed5760405162461bcd60e51b815260206004820152601a60248201527f596f752063616e277420436c61696d20546f6b656e73204e6f770000000000006044820152606401610363565b6000805482825260026020526040918290208054600190910154925163a9059cbb60e01b81526001600160a01b0391821660048201526024810193909352169063a9059cbb906044016020604051808303816000875af1158015610655573d6000803e3d6000fd5b505050506040513d601f19601f82011682018060405250810190610679919061096c565b50604080518281524260208201527f8aa7b75a6f77002436c80c534f692ac27f3ac8510cca43c7c83fafa3ec50635a910160405180910390a1600090815260026020819052604090912001805460ff19166001179055565b600181815481106106e157600080fd5b6000918252602090912001546001600160a01b0316905081565b60008181526002602052604081206003015442111561071c57506001919050565b506000919050565b6000818152600260205260408120546001600160a01b0380851691160361074d57506001610751565b5060005b92915050565b60008181526002602081905260408220015460ff161515810361071c57506001919050565b6001600160a01b0381166000908152600360209081526040808320805482518185028101850190935280835260609492939192909184015b82821015610816576000848152602090819020604080516080810182526004860290920180546001600160a01b0316835260018082015484860152600282015460ff1615159284019290925260030154606083015290835290920191016107b4565b505050509050919050565b60006020828403121561083357600080fd5b5035919050565b80356001600160a01b038116811461085157600080fd5b919050565b6000806040838503121561086957600080fd5b6108728361083a565b946020939093013593505050565b60006020828403121561089257600080fd5b61089b8261083a565b9392505050565b602080825282518282018190526000919060409081850190868401855b8281101561090457815180516001600160a01b0316855286810151878601528581015115158686015260609081015190850152608090930192908501906001016108bf565b5091979650505050505050565b60006020828403121561092357600080fd5b5051919050565b634e487b7160e01b600052601160045260246000fd5b808201808211156107515761075161092a565b6000600182016109655761096561092a565b5060010190565b60006020828403121561097e57600080fd5b8151801515811461089b57600080fdfea26469706673582212203be14be0aacd26d6408d4a2cdf4d845616656dadfa06923355bd01015cff404264736f6c63430008110033",
    "sourcePath": "/home/hp/Documents/block-chain/solidity/task_deploy/contracts/UserBuy.sol",
    "compiler": {
        "name": "solc",
        "version": "0.8.17+commit.8df45f5f"
    },
    "functionHashes": {
        "ViewToken()": "cd65bb67",
        "buyTokens(uint256)": "3610724e",
        "claim(uint256)": "379607f5",
        "getUserData(address)": "ffc9896b",
        "isClaimable(uint256)": "89610a09",
        "isClaimed(uint256)": "9e34070f",
        "isClaimer(address,uint256)": "8a3eb3c4",
        "orderToken(uint256)": "0d3f51d5",
        "user(uint256)": "553275be",
        "value()": "3fa4f245"
    },
    "gasEstimates": {
        "creation": {
            "codeDepositCost": "500000",
            "executionCost": "infinite",
            "totalCost": "infinite"
        },
        "external": {
            "ViewToken()": "260",
            "buyTokens(uint256)": "infinite",
            "claim(uint256)": "4922",
            "getUserData(address)": "infinite",
            "isClaimable(uint256)": "2494",
            "isClaimed(uint256)": "2551",
            "isClaimer(address,uint256)": "2650",
            "orderToken(uint256)": "8905",
            "user(uint256)": "4703",
            "value()": "223"
        }
    }
}