{
  "contractName": "UserBuy",
  "abi": [
    {
      "inputs": [
        {
          "internalType": "address",
          "name": "_add",
          "type": "address"
        }
      ],
      "stateMutability": "nonpayable",
      "type": "constructor"
    },
    {
      "anonymous": false,
      "inputs": [
        {
          "indexed": false,
          "internalType": "uint256",
          "name": "OrderID",
          "type": "uint256"
        },
        {
          "indexed": false,
          "internalType": "uint256",
          "name": "ClaimTime",
          "type": "uint256"
        }
      ],
      "name": "OrderClaimed",
      "type": "event"
    },
    {
      "anonymous": false,
      "inputs": [
        {
          "indexed": false,
          "internalType": "uint256",
          "name": "OrderID",
          "type": "uint256"
        },
        {
          "indexed": false,
          "internalType": "uint256",
          "name": "BuyTime",
          "type": "uint256"
        }
      ],
      "name": "OrderPlaced",
      "type": "event"
    },
    {
      "inputs": [
        {
          "internalType": "uint256",
          "name": "",
          "type": "uint256"
        }
      ],
      "name": "orderToken",
      "outputs": [
        {
          "internalType": "address",
          "name": "Buyer",
          "type": "address"
        },
        {
          "internalType": "uint256",
          "name": "Amount",
          "type": "uint256"
        },
        {
          "internalType": "bool",
          "name": "is_Claimed",
          "type": "bool"
        },
        {
          "internalType": "uint256",
          "name": "claimTime",
          "type": "uint256"
        }
      ],
      "stateMutability": "view",
      "type": "function",
      "constant": true
    },
    {
      "inputs": [
        {
          "internalType": "uint256",
          "name": "",
          "type": "uint256"
        }
      ],
      "name": "user",
      "outputs": [
        {
          "internalType": "address payable",
          "name": "",
          "type": "address"
        }
      ],
      "stateMutability": "view",
      "type": "function",
      "constant": true
    },
    {
      "stateMutability": "payable",
      "type": "receive",
      "payable": true
    },
    {
      "inputs": [
        {
          "internalType": "uint256",
          "name": "_amount",
          "type": "uint256"
        }
      ],
      "name": "buyTokens",
      "outputs": [],
      "stateMutability": "payable",
      "type": "function",
      "payable": true
    },
    {
      "inputs": [
        {
          "internalType": "uint256",
          "name": "_orderId",
          "type": "uint256"
        }
      ],
      "name": "claim",
      "outputs": [],
      "stateMutability": "nonpayable",
      "type": "function"
    },
    {
      "inputs": [
        {
          "internalType": "uint256",
          "name": "_orderId",
          "type": "uint256"
        }
      ],
      "name": "isClaimable",
      "outputs": [
        {
          "internalType": "bool",
          "name": "",
          "type": "bool"
        }
      ],
      "stateMutability": "view",
      "type": "function",
      "constant": true
    },
    {
      "inputs": [
        {
          "internalType": "uint256",
          "name": "_orderId",
          "type": "uint256"
        }
      ],
      "name": "isClaimed",
      "outputs": [
        {
          "internalType": "bool",
          "name": "",
          "type": "bool"
        }
      ],
      "stateMutability": "view",
      "type": "function",
      "constant": true
    },
    {
      "inputs": [
        {
          "internalType": "address",
          "name": "_user",
          "type": "address"
        },
        {
          "internalType": "uint256",
          "name": "_orderId",
          "type": "uint256"
        }
      ],
      "name": "isClaimer",
      "outputs": [
        {
          "internalType": "bool",
          "name": "",
          "type": "bool"
        }
      ],
      "stateMutability": "view",
      "type": "function",
      "constant": true
    },
    {
      "inputs": [
        {
          "internalType": "address",
          "name": "_user",
          "type": "address"
        }
      ],
      "name": "getUserData",
      "outputs": [
        {
          "components": [
            {
              "internalType": "address",
              "name": "Buyer",
              "type": "address"
            },
            {
              "internalType": "uint256",
              "name": "Amount",
              "type": "uint256"
            },
            {
              "internalType": "bool",
              "name": "is_Claimed",
              "type": "bool"
            },
            {
              "internalType": "uint256",
              "name": "claimTime",
              "type": "uint256"
            }
          ],
          "internalType": "struct UserBuy.Order[]",
          "name": "",
          "type": "tuple[]"
        }
      ],
      "stateMutability": "view",
      "type": "function",
      "constant": true
    },
    {
      "inputs": [],
      "name": "value",
      "outputs": [
        {
          "internalType": "uint256",
          "name": "",
          "type": "uint256"
        }
      ],
      "stateMutability": "payable",
      "type": "function",
      "payable": true
    },
    {
      "inputs": [],
      "name": "ViewToken",
      "outputs": [
        {
          "internalType": "uint256",
          "name": "",
          "type": "uint256"
        }
      ],
      "stateMutability": "view",
      "type": "function",
      "constant": true
    }
  ],
  "bytecode": "0x6080604052600160045560016005553480156200001b57600080fd5b506040516200141d3803806200141d833981810160405281019062000041919062000155565b80600660006101000a81548173ffffffffffffffffffffffffffffffffffffffff021916908373ffffffffffffffffffffffffffffffffffffffff160217905550600660009054906101000a900473ffffffffffffffffffffffffffffffffffffffff166000806101000a81548173ffffffffffffffffffffffffffffffffffffffff021916908373ffffffffffffffffffffffffffffffffffffffff1602179055505062000187565b600080fd5b600073ffffffffffffffffffffffffffffffffffffffff82169050919050565b60006200011d82620000f0565b9050919050565b6200012f8162000110565b81146200013b57600080fd5b50565b6000815190506200014f8162000124565b92915050565b6000602082840312156200016e576200016d620000eb565b5b60006200017e848285016200013e565b91505092915050565b61128680620001976000396000f3fe6080604052600436106100955760003560e01c806389610a091161005957806389610a09146101f85780638a3eb3c4146102355780639e34070f14610272578063cd65bb67146102af578063ffc9896b146102da57610113565b80630d3f51d5146101185780633610724e14610158578063379607f5146101745780633fa4f2451461019d578063553275be146101bb57610113565b3661011357670de0b6b3a76400003410156100af57600080fd5b6001339080600181540180825580915050600190039060005260206000200160009091909190916101000a81548173ffffffffffffffffffffffffffffffffffffffff021916908373ffffffffffffffffffffffffffffffffffffffff1602179055005b600080fd5b34801561012457600080fd5b5061013f600480360381019061013a9190610b7b565b610317565b60405161014f9493929190610c13565b60405180910390f35b610172600480360381019061016d9190610b7b565b610374565b005b34801561018057600080fd5b5061019b60048036038101906101969190610b7b565b6106aa565b005b6101a56108d9565b6040516101b29190610c58565b60405180910390f35b3480156101c757600080fd5b506101e260048036038101906101dd9190610b7b565b6108e1565b6040516101ef9190610c94565b60405180910390f35b34801561020457600080fd5b5061021f600480360381019061021a9190610b7b565b610920565b60405161022c9190610caf565b60405180910390f35b34801561024157600080fd5b5061025c60048036038101906102579190610cf6565b610953565b6040516102699190610caf565b60405180910390f35b34801561027e57600080fd5b5061029960048036038101906102949190610b7b565b6109d2565b6040516102a69190610caf565b60405180910390f35b3480156102bb57600080fd5b506102c4610a15565b6040516102d19190610c58565b60405180910390f35b3480156102e657600080fd5b5061030160048036038101906102fc9190610d36565b610a1d565b60405161030e9190610e94565b60405180910390f35b60026020528060005260406000206000915090508060000160009054906101000a900473ffffffffffffffffffffffffffffffffffffffff16908060010154908060020160009054906101000a900460ff16908060030154905084565b8060008054906101000a900473ffffffffffffffffffffffffffffffffffffffff1673ffffffffffffffffffffffffffffffffffffffff166370a08231306040518263ffffffff1660e01b81526004016103ce9190610eb6565b602060405180830381865afa1580156103eb573d6000803e3d6000fd5b505050506040513d601f19601f8201168201806040525081019061040f9190610ee6565b1015610450576040517f08c379a000000000000000000000000000000000000000000000000000000000815260040161044790610f70565b60405180910390fd5b60405180608001604052803373ffffffffffffffffffffffffffffffffffffffff168152602001828152602001600015158152602001603c426104939190610fbf565b81525060026000600554815260200190815260200160002060008201518160000160006101000a81548173ffffffffffffffffffffffffffffffffffffffff021916908373ffffffffffffffffffffffffffffffffffffffff1602179055506020820151816001015560408201518160020160006101000a81548160ff02191690831515021790555060608201518160030155905050600360003373ffffffffffffffffffffffffffffffffffffffff1673ffffffffffffffffffffffffffffffffffffffff16815260200190815260200160002060405180608001604052803373ffffffffffffffffffffffffffffffffffffffff168152602001838152602001600015158152602001603c426105ab9190610fbf565b815250908060018154018082558091505060019003906000526020600020906004020160009091909190915060008201518160000160006101000a81548173ffffffffffffffffffffffffffffffffffffffff021916908373ffffffffffffffffffffffffffffffffffffffff1602179055506020820151816001015560408201518160020160006101000a81548160ff0219169083151502179055506060820151816003015550507fd2c5bfb6bce70df9ca34993c14f0558fa1ee01713c7cf98de5c90dd033cdb85e60055442604051610687929190610ff3565b60405180910390a1600560008154809291906106a29061101c565b919050555050565b6106b43382610953565b6106f3576040517f08c379a00000000000000000000000000000000000000000000000000000000081526004016106ea906110d6565b60405180910390fd5b6106fc816109d2565b61073b576040517f08c379a000000000000000000000000000000000000000000000000000000000815260040161073290611142565b60405180910390fd5b61074481610920565b610783576040517f08c379a000000000000000000000000000000000000000000000000000000000815260040161077a906111ae565b60405180910390fd5b60008054906101000a900473ffffffffffffffffffffffffffffffffffffffff1673ffffffffffffffffffffffffffffffffffffffff1663a9059cbb6002600084815260200190815260200160002060000160009054906101000a900473ffffffffffffffffffffffffffffffffffffffff1660026000858152602001908152602001600020600101546040518363ffffffff1660e01b815260040161082a9291906111ce565b6020604051808303816000875af1158015610849573d6000803e3d6000fd5b505050506040513d601f19601f8201168201806040525081019061086d9190611223565b507f8aa7b75a6f77002436c80c534f692ac27f3ac8510cca43c7c83fafa3ec50635a814260405161089f929190610ff3565b60405180910390a160016002600083815260200190815260200160002060020160006101000a81548160ff02191690831515021790555050565b600034905090565b600181815481106108f157600080fd5b906000526020600020016000915054906101000a900473ffffffffffffffffffffffffffffffffffffffff1681565b60004260026000848152602001908152602001600020600301541015610949576001905061094e565b600090505b919050565b60008273ffffffffffffffffffffffffffffffffffffffff166002600084815260200190815260200160002060000160009054906101000a900473ffffffffffffffffffffffffffffffffffffffff1673ffffffffffffffffffffffffffffffffffffffff16036109c757600190506109cc565b600090505b92915050565b60008015156002600084815260200190815260200160002060020160009054906101000a900460ff16151503610a0b5760019050610a10565b600090505b919050565b600047905090565b6060600360008373ffffffffffffffffffffffffffffffffffffffff1673ffffffffffffffffffffffffffffffffffffffff168152602001908152602001600020805480602002602001604051908101604052809291908181526020016000905b82821015610b3557838290600052602060002090600402016040518060800160405290816000820160009054906101000a900473ffffffffffffffffffffffffffffffffffffffff1673ffffffffffffffffffffffffffffffffffffffff1673ffffffffffffffffffffffffffffffffffffffff168152602001600182015481526020016002820160009054906101000a900460ff1615151515815260200160038201548152505081526020019060010190610a7e565b505050509050919050565b600080fd5b6000819050919050565b610b5881610b45565b8114610b6357600080fd5b50565b600081359050610b7581610b4f565b92915050565b600060208284031215610b9157610b90610b40565b5b6000610b9f84828501610b66565b91505092915050565b600073ffffffffffffffffffffffffffffffffffffffff82169050919050565b6000610bd382610ba8565b9050919050565b610be381610bc8565b82525050565b610bf281610b45565b82525050565b60008115159050919050565b610c0d81610bf8565b82525050565b6000608082019050610c286000830187610bda565b610c356020830186610be9565b610c426040830185610c04565b610c4f6060830184610be9565b95945050505050565b6000602082019050610c6d6000830184610be9565b92915050565b6000610c7e82610ba8565b9050919050565b610c8e81610c73565b82525050565b6000602082019050610ca96000830184610c85565b92915050565b6000602082019050610cc46000830184610c04565b92915050565b610cd381610bc8565b8114610cde57600080fd5b50565b600081359050610cf081610cca565b92915050565b60008060408385031215610d0d57610d0c610b40565b5b6000610d1b85828601610ce1565b9250506020610d2c85828601610b66565b9150509250929050565b600060208284031215610d4c57610d4b610b40565b5b6000610d5a84828501610ce1565b91505092915050565b600081519050919050565b600082825260208201905092915050565b6000819050602082019050919050565b610d9881610bc8565b82525050565b610da781610b45565b82525050565b610db681610bf8565b82525050565b608082016000820151610dd26000850182610d8f565b506020820151610de56020850182610d9e565b506040820151610df86040850182610dad565b506060820151610e0b6060850182610d9e565b50505050565b6000610e1d8383610dbc565b60808301905092915050565b6000602082019050919050565b6000610e4182610d63565b610e4b8185610d6e565b9350610e5683610d7f565b8060005b83811015610e87578151610e6e8882610e11565b9750610e7983610e29565b925050600181019050610e5a565b5085935050505092915050565b60006020820190508181036000830152610eae8184610e36565b905092915050565b6000602082019050610ecb6000830184610bda565b92915050565b600081519050610ee081610b4f565b92915050565b600060208284031215610efc57610efb610b40565b5b6000610f0a84828501610ed1565b91505092915050565b600082825260208201905092915050565b7f496e73756666696369616e7420546f6b656e2042616c616e6365000000000000600082015250565b6000610f5a601a83610f13565b9150610f6582610f24565b602082019050919050565b60006020820190508181036000830152610f8981610f4d565b9050919050565b7f4e487b7100000000000000000000000000000000000000000000000000000000600052601160045260246000fd5b6000610fca82610b45565b9150610fd583610b45565b9250828201905080821115610fed57610fec610f90565b5b92915050565b60006040820190506110086000830185610be9565b6110156020830184610be9565b9392505050565b600061102782610b45565b91507fffffffffffffffffffffffffffffffffffffffffffffffffffffffffffffffff820361105957611058610f90565b5b600182019050919050565b7f596f7520617265206e6f7420746865204275796572206f662074686973206f7260008201527f6465720000000000000000000000000000000000000000000000000000000000602082015250565b60006110c0602383610f13565b91506110cb82611064565b604082019050919050565b600060208201905081810360008301526110ef816110b3565b9050919050565b7f546f6b656e732061726520616c726561647920436c61696d6564000000000000600082015250565b600061112c601a83610f13565b9150611137826110f6565b602082019050919050565b6000602082019050818103600083015261115b8161111f565b9050919050565b7f596f752063616e277420436c61696d20546f6b656e73204e6f77000000000000600082015250565b6000611198601a83610f13565b91506111a382611162565b602082019050919050565b600060208201905081810360008301526111c78161118b565b9050919050565b60006040820190506111e36000830185610bda565b6111f06020830184610be9565b9392505050565b61120081610bf8565b811461120b57600080fd5b50565b60008151905061121d816111f7565b92915050565b60006020828403121561123957611238610b40565b5b60006112478482850161120e565b9150509291505056fea264697066735822122017df044d5ca55dd48806ac53d381bee8edd196134415f9cec8bd00fdf584be7c64736f6c63430008110033",
  "immutableReferences": {},
  "source": "// SPDX-License-Identifier: MIT\n\npragma solidity ^0.8.17;\n\nimport \"../contracts/mytoken.sol\";\nimport \"openzeppelin-solidity/contracts/token/ERC20/IERC20.sol\";\n\nimport \"openzeppelin-solidity/contracts/utils/math/SafeMath.sol\";\n// import \"openzeppelin/contracts@4.6.0/token/ERC20/IERC20.sol\";\n\ncontract UserBuy {\n    using SafeMath for uint;\n    mytoken token;\n\n    struct Order{\n        address Buyer;\n        uint Amount;\n        bool is_Claimed;\n        uint claimTime; \n    }\n    address payable[] public user;\n    mapping(uint=>Order) public orderToken;\n    mapping(address=>Order[]) userData;\n    uint tokenPrice = 1;\n    uint orderId = 1;\n\n    event OrderPlaced(uint OrderID, uint BuyTime);\n    event OrderClaimed(uint OrderID, uint ClaimTime);\n    address addressA;\n    constructor (address _add) public {\n        addressA=_add;\n        token = mytoken(addressA);\n    } \n    function buyTokens(uint _amount) public payable {\n        // address _ad = address(this);\n        // uint a = msg.value*100;\n        // require((msg.value/1000000000000000000)*100 == _amount,\"Insufficiant Paid amount\");\n        require(token.balanceOf(address(this))>=_amount,\"Insufficiant Token Balance\");\n        \n        // require(msg.value==_amount.mul(tokenPrice),\"Insufficiant Paid amount\");\n        orderToken[orderId] = Order(msg.sender,_amount,false,block.timestamp+60);\n        userData[msg.sender].push(Order(msg.sender,_amount,false,block.timestamp+60));\n        emit OrderPlaced(orderId,block.timestamp);\n        orderId++;\n    }\n    function claim(uint _orderId) public {\n        \n        require(isClaimer(msg.sender, _orderId),\"You are not the Buyer of this order\");\n        require(isClaimed(_orderId),\"Tokens are already Claimed\");\n        require(isClaimable(_orderId),\"You can't Claim Tokens Now\");\n        // bool is_Claimed = true;\n        token.transfer(orderToken[_orderId].Buyer,orderToken[_orderId].Amount);\n        emit OrderClaimed(_orderId,block.timestamp);\n        orderToken[_orderId].is_Claimed = true;\n    }\n    function isClaimable(uint _orderId) public view returns(bool){\n        if(orderToken[_orderId].claimTime <block.timestamp){\n            return (true);\n        }\n        return (false);\n    }\n\n    function isClaimed(uint _orderId) public view returns(bool) {\n        // require(orderToken[_orderId].is_Claimed);\n        if(orderToken[_orderId].is_Claimed==false){\n            return true;\n        }\n        return false;\n    }\n\n    function isClaimer(address _user, uint _orderId) public view returns(bool) {\n        if(orderToken[_orderId].Buyer==_user){\n            return true;\n        }\n        return false;\n    }\n    function getUserData(address _user) public view returns(Order[] memory){\n        return userData[_user];\n    }\n    receive() external payable\n    {   \n        require(msg.value>=1 ether);\n        user.push(payable(msg.sender));\n    }\n    function value() payable public  returns(uint){\n        return msg.value;\n    }\n    function ViewToken() public view returns(uint){\n        return address(this).balance;\n    }\n}",
  "sourcePath": "/home/hp/Documents/block-chain/solidity/task_deploy/contracts/UserBuy.sol",
  "compiler": {
    "name": "solc",
    "version": "0.8.17+commit.8df45f5f.Emscripten.clang"
  },
  "schemaVersion": "3.4.11",
  "updatedAt": "2023-01-11T09:28:51.445Z",
  "networkType": "ethereum",
  "devdoc": {
    "kind": "dev",
    "methods": {},
    "version": 1
  },
  "userdoc": {
    "kind": "user",
    "methods": {},
    "version": 1
  }
}